@ba13 ; Affinity 
@bb02 ; Bank=Flash 
@bc03 ; Command 
:020000020900F3
:1000000081C0FFCFFFC7FFCFFFC7FFCFFFC7FFCF25
:10001000FFC7FFCFFFC7FFCFFFC7FFCFFFC7FFCF90
:10002000FFC7FFCFFFC7FFCFFFC7FFCFFFC7FFCF80
:10003000FFC7FFCFFFC7FFCFFFC7FFCFFFC7FFCF70
:10004000FFC7FFCFFFC7FFCFFFC7FFCFFFC7FFCF60
:10005000FFC7FFCFFFC7FFCFFFC7FFCFFFC7FFCF50
:10006000FFC7FFCFFFC7FFCFFFC7FFCFFFC7FFCF40
:10007000FFC7FFCFFFC7FFCFFFC7FFCFFFC7FFCF30
:10008000FFC7FFCFFFC7FFCFFFC7FFCFFFC7FFCF20
:10009000FFC7FFCFFFC7FFCFFFC7FFCFFFC7FFCF10
:1000A000FFC7FFCFFFC7FFCFFFC7FFCFFFC7FFCF00
:1000B000FFC7FFCFFFC7FFCFFFC7FFCFFFC7FFCFF0
:1000C000FFC7FFCFFFC7FFCFFFC7FFCFFFC7FFCFE0
:1000D000FFC7FFCFFFC7FFCFFFC7FFCFFFC7FFCFD0
:1000E000FFC7FFCFFFC7FFCFFFC7FFCFFFC7FFCFC0
:1000F000FFC7FFCFFFC7FFCFFFC7FFCFFFC7FFCFB0
:10010000C331E8FFF8943324E8EDF0E0E4BFF09366
:100110001001EFE1F9E6EDBFFEBFE0E0F9E6C2E471
:10012000D2E031922197E9F73092000AE0E0FBE05B
:1001300030823582E2E2FBE642D0C2E2D9E641D02B
:10014000C1E041D02ED009F45BC7E2E032C00C948C
:1001500008000C9409000C940A000C940B000C94F9
:100160000C000C940D000C940E000C940F000C94D9
:1001700010000C9411000C9412000C9413000C94B9
:1001800014000C9415000C9416000C9417000C9499
:1001900018000C9419000C941A000C941B000C9479
:1001A0001C000C941D000C941E000C941F000C9459
:1001B00020000C9421000C9422000C9423000C9439
:1001C00024000C9425000C9426000C9427000C9419
:1001D00028000C9429000C942A000C942B000C94F9
:1001E0002C000C942D000C942E000C942F000C94D9
:1001F00030000C9431000C9432000C9433000C94B9
:1002000034000C9435000C9436000C9437000C9498
:1002100038000C9439000C943A000C943B000C9478
:100220003C000C943D00E2E0F2E000C0EF23F095CA
:10023000009020690F22E02904C0E0E002C0EFEF47
:1002400000C0E093206900C0E09120690C94B108DF
:10025000EF23F095009021690F22E02906C0E0E02D
:1002600004C0E5E502C0EFEF00C0E093216900C0E3
:10027000E09121690C94AF08FFFFFFFFFFFFFFFF34
:00000001FF
; 
@bf00 ; Bootloader backup 
; *** EOF 
