@ba13 ; Affinity 
@bb01 ; MemBank 
@bc03 ; Command 
; ***************************************** 
; E13F0001 
; Firmware_12_LEDs_500ns 
; Fri 02/23/2024 
; ***************************************** 
:020000020A00F2
:1000000085C0000081E07DC082E07BC083E079C0D4
:1000100084E077C085E075C086E073C087E071C07A
:1000200088E06FC089E06DC08AE06BC08BE069C07A
:100030008CE067C09BC100008EE063C08FE061C0B0
:1000400080E15FC081E15DC082E15BC083E159C0B6
:1000500084E157C085E155C086E153C087E151C0B6
:1000600088E14FC089E14DC08AE14BC08BE149C0B6
:100070008CE147C001C100008EE143C08FE141C067
:1000800080E23FC081E23DC082E23BC083E239C0F2
:1000900084E237C085E235C086E233C087E231C0F2
:1000A00088E22FC089E22DC08AE22BC08BE229C0F2
:1000B0008CE227C08DE225C08EE223C08FE221C0F2
:1000C00080E31FC081E31DC082E31BC083E319C02E
:1000D00084E317C085E315C086E313C087E311C02E
:1000E00088E30FC089E30DC08AE30BC08BE309C02E
:1000F0008CE307C08DE305C08EE303C08FE301C02E
:1001000005C00C94D61318958B372E29F894222409
:10011000A2E5A0934208E8EDE0933400E5E8E0931F
:100120000110E8EDE4BF20921001AAE04A2EA3E0FE
:100130005A2EADE03A2EE0E0F9E6C1E1D1E021929D
:100140002197E9F7A8EDB8E0A0933400B09300013F
:10015000A0915101A0FDFCCFA1E2A0935001A0917C
:100160004101A2FDFCCFA0E0B0E4A0934A01B0930E
:100170004B01AFE0B9E6ADBFBEBFA8EDB4E2A093BE
:100180003400B0936800E3E0E0930006E7E0E0931A
:100190000106E5E0E0930206E5E1E0930806E1E010
:1001A000E0930A06E1E4E0931202E3E0E0933F0209
:1001B000E0934102A1E0A093010BA1E0A093040B06
:1001C000ACE0B0E0A0930C0BB0930D0BA1E0A093BA
:1001D000000BA1E0A093110BA1E0A093150BA1E1EE
:1001E000A093140BA3EFB0E0A0931C0BB0931D0BD6
:1001F000A1E0A093100BA8E0A09351044198C0E0A7
:10020000DAE6E0E0F3E1A5E56A2EAC9AA0910060A1
:10021000A33C21F0AA95A093006037D124D133D11B
:1002200022D1AC98B8E0519BFECF5199FECFBA9540
:10023000D1F7A8EDBBE0A0933400B09300014A9839
:10024000429A2CBA89C044E0A8E0BFEF4092510422
:100250000090060B0092060B56DF0995B3992CBA55
:10026000B1992CBA0CB20A940CBA09F49FC220922C
:100270001A0B20921B0BF1CFA0935104B0934904A9
:1002800042DFA091060BA093060B4093A704519B5D
:10029000FECF09950090060B0092060B0694AA1F4C
:1002A0004093A704519BFECF09950090060B009246
:1002B000060B0694AA1F4093A704519BFECF0995F5
:1002C0000090060B0092060B0694AA1F4093A70409
:1002D000519BFECF09950090060B0092060B0694E9
:1002E000AA1F4093A704519BFECF09950090060BCF
:1002F0000092060B0694AA1F4093A704519BFECFC1
:1003000009950090060B0092060B0694AA1F4093D5
:10031000A704519BFECF0995C31599F00090060BD9
:100320000092060B0694AA1F4093A704519BFECF90
:10033000A9930995A091060BA093060B4093A704DF
:10034000A6CF509230020090060B0092060B069446
:10035000AA1FA993F89400C071D078940000F89473
:1003600000C000C000C000C00000F6CF0995209278
:100370003002A8E0A0935104A895C0E0DAE600009E
:100380000995A991A093A30600C000C0000000C079
:1003900000C000C000000995799000C000C00000B6
:1003A000899000C000C000000995999000C000C06D
:1003B0000000A99000C000C000000995B99000C0DD
:1003C00000C00000C99000C000C000000995D9908D
:1003D00000C000C00000E99000C000C00000099506
:1003E000F99000C000C00000099100C000C00000EA
:1003F0000995199100C000C00000299100C000C0FB
:1004000000000995AFE0B9E6ADBFBEBF00C000C0B7
:1004100000C000C000C00995AEE2A093420800C031
:1004200000C000C000C000C0000008D0C0E0DAE694
:100430000090160B0092160B099505CF0995A09117
:100440004301A0934301A0FF0BC000C000C0000007
:100450000995A0E1A093A70400C000C000C000005F
:1004600000C000C00994A2E3B0E003C0A6E9B0E078
:1004700000C00995009053010092530100FEF9CF8E
:100480001197B9F7089509D002C00AD000C0B0E1B1
:10049000E0E00995BA95E9F70895C0ECD4EA03C005
:1004A000CCECD4EA00C0799089909990A990B99049
:1004B000C990D990E990F9900991199129910895DD
:1004C000000000000000000000000000FFFFFFFF30
:100600002DB86CB8671531E02CB83DB931E408F469
:100610003CB9EBE008952DB86CB8681530E42CB8FF
:100620003DB931E408F43CB9E6E108952DB86CB861
:10063000691534E02CB83DB935E008F43CB9E1E285
:1006400008952DB86CB86A1531E02CB83DB935E085
:1006500008F43CB9ECE208952DB86CB86B1534E0A1
:100660002CB83DB934E408F43CB9E7E308952DB85B
:100670006CB86C1530E42CB83DB934E408F43CB9DE
:10068000E2E408952DB86CB86D1531E02CB83DB991
:1006900031E108F43CB9EDE408952DB86CB86E155D
:1006A00034E02CB83DB934E108F43CB9E8E50895EC
:1006B0002DB86CB86F1530E12CB83DB931E108F4B4
:1006C0003CB9E3E608952DB86CB8601730E12CB85A
:1006D0003DB934E108F43CB9EEE608952DB86CB8A4
:1006E000611730E12CB83DB930E508F43CB9E9E7D1
:1006F00008952DB86CB8621730E42CB83DB930E5D8
:1007000008F43CB9E4E808952DB86CB86A95E0E0C7
:1007100000C000C000C008950C9408000C940900AB
:100720000C940A000C940B000C940C000C940D001B
:100730000C940E000C940F000C9410000C941100FB
:100740000C9412000C9413000C9414000C941500DB
:100750000C9416000C9417000C9418000C941900BB
:100760000C941A000C941B000C941C000C941D009B
:100770000C941E000C941F000C9420000C9421007B
:100780000C9422000C9423000C9424000C9425005B
:100790000C9426000C9427000C9428000C9429003B
:1007A0000C942A000C942B000C942C000C942D001B
:1007B0000C942E000C942F000C9430000C943100FB
:1007C0000C9432000C9433000C9434000C943500DB
:1007D0000C9436000C9437000C9438000C943900BB
:1007E0000C943A000C943B000C943C000C943D009B
:00000001FF
; 
; *** EOF 
; 
; **************[12 LEDs]****************** 
@ba13 ; Affinity [E13F0001] 
@bb03 ; MemBank  [E13E0001] 
@bc03 ; Command 
:020000020140BB
:100000000B84A1880DFFFFFFFFFFFFFFFFFFFFFF36
:00000001FF
; ***************************************** 
