@ba13 ; Affinity 
@bb01 ; MemBank 
@bc03 ; Command 
; ***************************************** 
; E13F0001 
; Firmware_12_LEDs_500ns 
; Tue 04/16/2024 
; ***************************************** 
:020000020A00F2
:100000008AC0000081E084C082E082C083E080C0BA
:1000100084E07EC085E07CC086E07AC087E078C05E
:10002000D0C2000089E074C08AE072C08BE070C06A
:100030008CE06EC08DE06CC08EE06AC03CC30000F6
:1000400080E166C081E164C082E162C083E160C09A
:1000500084E15EC085E15CC086E15AC087E158C09A
:1000600088E156C089E154C08AE152C08BE150C09A
:100070008CE14EC08DE14CC08EE14AC08FE148C09A
:1000800080E246C081E244C082E242C083E240C0D6
:1000900084E23EC085E23CC086E23AC087E238C0D6
:1000A00088E236C089E234C08AE232C08BE230C0D6
:1000B0008CE22EC08DE22CC08EE22AC08FE228C0D6
:1000C00080E326C081E324C082E322C083E320C012
:1000D00084E31EC085E31CC086E31AC087E318C012
:1000E00088E316C089E314C08AE312C08BE310C012
:1000F0008CE30EC08DE30CC08EE30AC08FE308C012
:1001000001003FE1020100007BAC1E66EF8AF8C6E9
:100110000C948D111895F8942224E8EDE0933400A6
:10012000E5E8E0930110E8EDE4BF20921001AAE0B9
:100130004A2EA1E05A2EE0E0F9E6CDE0D1E021928E
:100140002197E9F7A0910101A0FDFCCFA8EDB8E04F
:10015000A0933400B0930001A0915101A0FDFCCF09
:10016000A1E2A0935001A0914101A2FDFCCFA0E02B
:10017000B0E4A0934A01B0934B01AFE0B9E6ADBF44
:10018000BEBFA8EDB4E2A0933400B0936800E5E8E8
:10019000E093B200E1E4E093A006EFEFE093A30662
:1001A000FFEF3197F1F7A5E3A0930006A0E0A0933D
:1001B0000106ABE0A0930206A0E0A0930306A0E036
:1001C000A0930406A0E0A0930506A2E4A09308066D
:1001D000A5E8A093B000E7E4E0931002E1E0E0932B
:1001E0003E02E0934002A1E0A093010BA1E0A093A6
:1001F000040BACE0B0E0A0930C0BB0930D0BA1E0AE
:10020000A093000BA1E0A093110BA1E0A093150B0C
:10021000A1E1A093140BA3EFB0E0A0931C0BB0934B
:100220001D0BA1E0A093100BA8E0A0931704079862
:100230006A98629A94D08AD1C0E0DAE6E0E0F5E10B
:10024000AFE06A2E6627AC9AA0910060A33C21F033
:10025000AA95A0930060C0D2ADD2BCD2ABD2AC986C
:10026000B8E0179BFECF1799FECFBA95D1F7A091B2
:100270000101A0FDFCCFA8EDBBE0A0933400B0933A
:1002800000012CBA0EC20C9408000C9409000C94C6
:100290000A000C940B000C940C000C940D000C94B0
:1002A0000E000C940F000C9410000C9411000C9490
:1002B00012000C9413000C9414000C9415000C9470
:1002C00016000C9417000C9418000C9419000C9450
:1002D0001A000C941B000C941C000C941D000C9430
:1002E0001E000C941F000C9420000C9421000C9410
:1002F00022000C9423000C9424000C9425000C94F0
:1003000026000C9427000C9428000C9429000C94CF
:100310002A000C942B000C942C000C942D000C94AF
:100320002E000C942F000C9430000C9431000C948F
:1003300032000C9433000C9434000C9435000C946F
:1003400036000C9437000C9438000C9439000C944F
:100350003A000C943B000C943C000C943D007DD082
:10036000F0991ED0F1991ED0F2991FD0F39922D0A6
:10037000EEB3E21103C0F89BF99920D0E4E0E093DA
:100380005004E0935104E0935204E0935304E0934B
:100390007104E0937304E0937404E093750408958A
:1003A00057D05BC07DD067D058C0EFEFE0931569A0
:1003B00062D053C0209215695ED04FC0209246088B
:1003C000A89A00C0A09A06D017D0E2ECE0934608A5
:1003D000A09A0895A89800C0B3990895A89A00C05B
:1003E000B39B0895A89800C0B3990895A89A00C037
:1003F000B39B0895D5DF12C0A89800C0B1990895A5
:10040000A89A00C0B19B0895A89800C0B19908951A
:10041000A89A00C0B19B0895C5DF00C0992782E06B
:1004200031978209E9F7AC9A82E031978209E9F7BE
:10043000AC98A895B3999927B19999279A9579F786
:100440006CCF0090021001FCFCCF00FCFACF0895A5
:1004500080E320D0209200141CC0E0E0F4E1C4E16D
:10046000D9E611D0E0911469EC3008F0ECE0E093AB
:1004700014693E2E089583E10DD0E4E1F9E6C0E071
:10048000D4E101D006C080E1019009928A95E1F79C
:10049000089581E0D6DF9DE994BF80930010D1CF0D
:1004A000EFE06E2E6627A3D13324E5E8E093B00099
:1004B0003AD0A4E2B9E6C4EDD4EAE991F5E10995B0
:1004C0009991899119D08E9333D0C83FB1F730926A
:1004D000146908958405047804056C04036004011C
:1004E0005403044801043C050330030524010318A8
:1004F00003010C050100010590930806809309068D
:1005000081E080930D0681E080930A0680910D06BC
:1005100080FFFCCF909110068091110697FD839586
:1005200087FD8FE708952092166920921769089534
:10053000853508F4339490911669991F9093166944
:1005400090911769991F9093176908958091156983
:10055000C4E4DBEA8211C2E38211DBEA64D1C6E5BE
:10056000DBEA61D18091146966D1C4E6DBEA5BD134
:10057000C8E1D9E689915DD1C432E1F7C2E7DBEA8F
:1005800052D18091176957D18091166954D160C1B9
:1005900054E0A8E0BFEF409217040090060B0092D1
:1005A000060BB8DD0995B3992CBAB1992CBA0CB2E7
:1005B0000A940CBA09F4B1CE20921A0B20921B0BAC
:1005C000F1CFA0931704B0930904A4DDA091060B0A
:1005D000A093060B5093A704179BFECF099500909C
:1005E000060B0092060B0694AA1F5093A704179BB4
:1005F000FECF09950090060B0092060B0694AA1FE9
:100600005093A704179BFECF09950090060B00920C
:10061000060B0694AA1F5093A704179BFECF0995BB
:100620000090060B0092060B0694AA1F5093A70495
:10063000179BFECF09950090060B0092060B0694BF
:10064000AA1F5093A704179BFECF09950090060B95
:100650000092060B0694AA1F5093A704179BFECF87
:100660000995C31599F00090060B0092060B0694AD
:10067000AA1F5093A704179BFECFA9930995A09199
:10068000060BA093060B5093A704A6CF50923002FE
:100690000090060B0092060B0694AA1FA993F894EB
:1006A00000C073D078940000F89400C000C000C06F
:1006B00000C00000F6CF0995A0911469A211209204
:1006C0003002A8E0A0931704A895C0E0DAE6000085
:1006D0000995A991A093A306009016691090176937
:1006E00000C000C0099500FC799000C000C001FC6A
:1006F000899000C000C0099502FC999000C000C01C
:1007000003FCA99000C000C0099504FCB99000C08A
:1007100000C005FCC99000C000C0099506FCD99036
:1007200000C000C007FCE99000C000C0099510FCA3
:10073000F99000C000C011FC099100C000C00995EB
:1007400012FC199100C000C013FC299100C000C028
:100750000995AFE0B9E6ADBFBEBF00C000C000C0A4
:1007600000C000C00995AEE2A093420800C000C0DE
:1007700000C000C000C0000008D0C0E0DAE6009071
:10078000160B0092160B099503CF0995A091430112
:10079000A0934301A0FF0BC000C000C0000009955A
:1007A000A0E1A093A70400C000C000C0000000C0EA
:1007B00000C00994A2E3B0E003C0A6E9B0E000C025
:1007C0000995009053010092530100FEF9CF119753
:1007D000B9F7089509D002C00AD000C0BCE0E0E03B
:1007E0000995BA95E9F70895CEE0D8EA03C0CAE1C1
:1007F000D8EA00C0799089909990A990B990C99051
:10080000D990E990F99009911991299108950000E2
:1008100000000000000000000000FFFFFFFFFFFFDE
:10082000FFFFFFFFFFFF8991821115D08211FBCFDF
:10083000089501D00BC08F93829502D08F9100C094
:100840008F708A3008F0895D805D05C080E203C04A
:10085000C0E8DBEAE8CF0090440805FEFCCF8093B7
:1008600042080895FFFFFFFFFFFFFFFFFFFFFFFFAD
:100A0000000029B868B828B8671531E039B939E06D
:100A100008F438B9ECE00895000029B868B828B89F
:100A2000681538E039B939E008F438B9E8E10895D3
:100A3000000029B868B828B8691532E039B933E040
:100A400008F438B9E4E20895000029B868B828B875
:100A50006A1531E039B933E008F438B9E0E30895B4
:100A60003FEF39B968B828B86B1532E039B93AE0C8
:100A700008F438B9ECE308953FEF39B968B828B8FD
:100A80006C1538E039B93AE008F438B9E8E408956B
:100A90003FEF39B968B828B86D1531E039B935E09C
:100AA00008F438B9E4E508953FEF39B968B828B8D3
:100AB0006E1532E039B936E008F438B9E0E6089549
:100AC0003FEF39B968B828B86F1534E039B935E067
:100AD00008F438B9ECE608953FEF39B968B828B89A
:100AE000601734E039B936E008F438B9E8E708951A
:100AF0003FEF39B968B828B8611734E039B93CE03C
:100B000008F438B9E4E808953FEF39B968B828B86F
:100B1000621738E039B93CE008F438B9E0E90895E3
:100B200029B868B86A95E0E000C000C000C00000C5
:100B300008950D0A0A55736573204441433A2020F5
:100B40006E6F00000D0A0A55736573204441433AE5
:100B50002020796573000D0A4C454420636F756E43
:100B6000743A20000D0A4144435B302D31315D3A27
:100B700020000D0A4C4544206D61736B3A20200023
:100B80000A0D0000150B00000101401500851069D9
:100B900000010103401500851169000101034015A2
:100BA00000851269000101034015008513690001E9
:100BB00000404015008500000002FFFFFFFFFFFF1F
:00000001FF
; 
; *** EOF 
