:020000020000FC
:100000000C943E000C94EA010C94EA010C948001DB
:10001000A4C1A6C1A8C1AAC1E4C0DDC04CC54DC5DC
:10002000AAC1A7C1AFC158C35DC3E2C3E5C36EC3D4
:1000300078C37FC312C4EBC3F9C362C357C35BC3A6
:100040008BC4BEC1B2C1B7C1FBC200C30BC30CC3DA
:1000500014C320C337C33BC346C4C4C0CAC03DC4D5
:1000600070C37AC356C396C497C497C4AFC0AEC01A
:10007000ADC0ACC0ABC0AAC0A9C06CC1F89422246A
:10008000E7E2F9E6EDBFFEBFE8EDF7E0E4BFF0938D
:100090000001A895E8EDF4E2E4BFF0936800E09178
:1000A0004000E0934000EFBBE8EDE4BF2092011078
:1000B0002BBE20B828B82CB824BAE8EDF0E6E4BF8F
:1000C000F0931001E0914101E211FCCF2092480130
:1000D00020924901E1E0E0934001EFE0E093E20586
:1000E000EFE0E093E405E0E0E093E605E0E0E09394
:1000F000E705E0E0E093E805E0E0E093E005E8E014
:10010000E093B204E093B304E093B104E093B0044D
:10011000E0E4F8E02682A0ECB0E0A087B187A0E898
:10012000A583A3E0A783A2ECA683A398A198AA9A8B
:10013000A89AA29AA09AA49A4798F89B06C0E0E0D1
:10014000F0E6AFEFA193F836E8F3E0E0F9E6FB9BC9
:10015000F899E0E0FB9BF899F8E62192F038E8F393
:10016000E0914801F0914901F230D0F3E2E033D060
:1001700033D0B39B0BC000900090009429F0C2E0F4
:1001800097D448D409F439C1E1E01AC1E0E0FAE0BB
:100190002082218222822382AFE0A083E0E0FBE084
:1001A00020822182AEE6B1E0A487B587A1E0A583D5
:1001B000A5E0A0838ED293D2789409D00DD0C2E668
:1001C0006ED48FB39927E0E0C0D132C00895E0E04B
:1001D00002C0EFEF00C00895E0E003C0E5E501C014
:1001E000EFEF0895E8EDF1E0E0933400F093410083
:1001F000FFCFA895E8EDE4BFE1E0E0930001FFCF79
:10020000B4D3FDD29681A8D30C92A5D3B3C3ADD3FA
:10021000A2D39781A1D3F3D209901C9001100C9224
:1002200011960197C9F797D3A5D3089555555555FC
:10023000E7E2F9E6EDBFFEBF222734E0EAE285D12E
:10024000C091006935D426D1203491F324FD10C02B
:1002500026FFF9CFECEDF2E0059000160590159021
:1002600019F4F0010995E4CFE030B1F720FFEBCFAE
:10027000003449F7622F6370613029F72062F7D0AC
:100280007A3B21F46331A1F62061DDCF24FFD0CF8A
:100290007B3B39F4693060F6C62F0AD4246031E024
:1002A000D2CF7C3B21F422FFC3CF7DD1CCCF7F3B8B
:1002B00051F6603011F40AD0BBCF613009F40AD096
:1002C000B7CF68E070C1C02FEAD3B2CF65D3EEEDEF
:1002D0003CD1AECF62D3ECEE38D1AACF53F301526A
:1002E000DA01646101616301626301636301656353
:1002F000016663017363017563016C63010018019A
:10030000EFB64F01E0914408E7FF13C0E72DE6196F
:10031000E03C23FF08F0AA9AE0914108E2FD82C088
:10032000F0E7E72D7090400871927E2EF401EFBE49
:100330001895E091060BE093060B761411F4421029
:100340004A943A9422F4332EE0E1E093A704F401B6
:10035000EFBE1895E0E0F0E00895EDE0F0E00895DC
:10036000E0E3F1EE0895E1E0F0E00895E0E3F1EE7E
:10037000089503D0A2C301D09EC3AFE0B0E0C0E1B6
:10038000D1E10895F8DFA193B193C193D193F1DF47
:10039000A193B193C193D1930895DFEF672C94D0CB
:1003A0006710FBCF2197D9F7089517D048F008952B
:1003B000EBE001C0EAE015DF2092480120924901FC
:1003C000A895F894AA98F0E208D0E8F70ADFF0E4DC
:1003D00004D0E8F7FCDE00DF05CF00904801009074
:1003E0004901F0150895C091006962D313D3C9F48F
:1003F000CF3311F0CB33A9F4D0DF209245082092FF
:10040000000A2092000B2092050B209248012092B6
:1004100049018ED1FE01E050F048F695E795F89439
:10042000099411CFF89420924608AA98E8E0D3DE08
:10043000E5E5D7DEEFEFA89500C000C000C0E211EF
:10044000EA95B19BF8CFE211F5CFC4CF8E2F992753
:10045000C8DEE8E0C0DEE4EA78D0F0911500E2E022
:10046000F4FDEAE0B8DE32E0672C2ED0F6CF04D0FF
:10047000702F02D0602F089507D002950F9304D0FB
:100480000F900029F00E089505D00F7D075308F452
:10049000095D089519D0421002C025FDC9CE761419
:1004A000C9F3F0E7E62D00816394206442102F7BAE
:1004B00026FD2F7EFBE04F2E21FF23950A3011F001
:1004C0000D3009F42C7F00C00F01A89523FD06C054
:1004D000E72DE619E03218F4AA9801C0AA9AF001B3
:1004E0000895019101D003C00F93029501C00F93AD
:1004F0000F70005D0A3308F0095F1BD00F9108955B
:10050000092FF0DF082FEECF0AE013D00DE011C065
:10051000E0E0F1E1E6DFE5DFE4DF0EE20AD029DF2B
:10052000CE01EEDFCD01ECDF26DFCE01E9DFCD012C
:10053000E7CFD8E1C9DF0090440805FEFBCF219743
:10054000B399C1F7009342080895E0930169FCE074
:10055000E091016905910EBBE0930169002391F0E0
:1005600012F0E7DFF4CFF1990ED0F29911D0F399A0
:10057000C7DFF499CDDFF69913D0F59969D2F099D8
:10058000C3DFE5CF0895C591E093016991D24CC2D4
:1005900000900069109031690AE210100895C9CFE7
:1005A00009E0C7DF43C26CBBE09976D2E19907D07E
:1005B000E39956D2E69921CFE799FACE089517D15B
:1005C000B7D0C0930269D093036964DF20FFFDCFE9
:1005D0000A33D9F751DF502EF02E49DFC09102695E
:1005E000D0910369C60FD71F47DF003031F00130CB
:1005F000F1F0023069F0E4E029CFFDD00894520810
:10060000A0F02AD1E5E0C8F037DF802F0ED1F6CF79
:100610002EDF660F771F660F771F660F771F660F37
:10062000771F609302697093036903D0CECF5AD1CC
:1006300000C022DFF21411F0E6E008CF0895BBD02D
:10064000C4E2D3E049D04EC0A8950895C487D587A9
:100650000895C93008F0C9E0DCE0CD9FE001C45640
:10066000D6470895F6DFADC0C083D183C48BD58B48
:10067000CA0FDB1FC283D3830895A68FA895C28FAC
:10068000D38FD5D020F0C28DD38D2197B9F708959F
:10069000AA27BB27C48FD58FEC8FFD8FA895A28F7B
:1006A000B38FC48DD58DFE01B2D048F0C48DD58DE9
:1006B000FE01BCD020F0A28DB38D119779F708957B
:1006C0008FEF79D0868FA895B2D0E8F70CC1FADF0A
:1006D000FFCF71D0CFEBD4E0C68BD78B08956BD012
:1006E000C8ECD4E0C08FD18F089565D081D00ED0F2
:1006F00018D0E1C160D07CD009D013D0DEC15BD06E
:10070000F5DF02841384C015D1050895C489D58905
:100710000895C489D58900801180C019D109089530
:100720004AD0A281B38104881588A019B10908951F
:1007300042D0C081D18108953ED0C281D381089535
:100740003AD000801180C281D381C019D10909F04B
:1007500021960024021C08957CDFFE010080118098
:10076000C281D381F2CF0C2EC8EAD9E818841014C4
:1007700019F02C96C830D1F70895DCE0CD9FE00148
:10078000C456D6470895CE01C8EAD9E80880198032
:100790008015910530F00A801B808015910531F09D
:1007A00028F02C96C83091F70894089588940895FD
:1007B000A0E0B1E70895E8E2F9E60895FCDFA48738
:1007C000B5878CE0099001928A95E1F73C97C48146
:1007D000D5812197C095D095C28BD38BC081D18113
:1007E000C687D787C08BD18B278E02D07EC0E3DF30
:1007F000C081D18101C0DFDFC48BD58B0895848196
:100800009581A685B785C485D5850895D4DF25D083
:1008100038F0C489D58950D020F08991C48BD58B0C
:10082000089521968FEF0894F9CFC5DF868F15D0F4
:1008300090F053D0C481D5812197A489B589CA236A
:10084000DB231196A48BB58BA485B585CA0FDB1F5E
:10085000868D888388940895AEDF04881080011403
:1008600005881180010440F0048812800114058875
:100870001380010419F010F00894089588940895E5
:100880009ADFC489D589A685B785CA17DB0730F0FA
:10089000A089B189CA17DB0719F010F008940895F0
:1008A0008894089588DFC685D78506D0A78DAE7F4A
:1008B00008F4A160A78F0895C034B0E1DB0748F0C9
:1008C000D63148F0D03628F0D03828F0D03908F0AA
:1008D00002C00894089588940895D3DF10F403D0DB
:1008E00004D0089568DF2BD026C0C489D58902883A
:1008F0001388C021D121C687D78784819581C80FED
:10090000D91F2197C08BD18BCEDF40F0A685B7854C
:10091000C485D5850D9009920197E1F70895078C5C
:1009200000FC07C06CDF09901D90011419F40197B9
:10093000D1F718940895F3DF09F069CC0895078C76
:1009400000FC08955CDF09901D901020011058CC28
:100950000197C9F7089590E0809102108370E1F744
:100960008DE984BF90930010089506880F92078840
:100970000F920895008C0F92018C0F9208952860B9
:10098000AA9AFF93F4E6A0DDFA95E9F7FF9108959E
:10099000277F9ACD98940895089508950000FFFF49
:1009A000010000002D00000000A0FFFF000208026F
:1009B00066013FE10090FF9F0002080262023BE1F6
:1009C0000014FF150100181265033EE180109F100E
:1009D0002000080263043CE100111F110100000027
:1009E000730500005010581001000000750600004B
:1009F0000060FF670002000061073AE140104F10FD
:100A0000010000006C08000000110011010000004E
:100A10002D09000074DEA0930469B0930569C093AA
:100A20000669D09307690895F5DF01C09894EEEC4C
:100A300009F4E4ED0ED0909107698091066960DDBC
:100A400090910569809104695BDD02C0EEEC01C004
:100A5000EAEDFCE00591002311F06BDDFBCF08957A
:100A600053DDC5DEF3DFA7DE8489958900E1080F39
:100A7000090FF02EE0E969DDC9DE38F0082FF00E2D
:100A800031DD99DE04890F70B9F7E0DFF1940F2DA5
:100A900029DDE2DE40F70895AADE12DE23CF05D07D
:100AA000009131690093006908955DDE81DE86CE94
:100AB00064DE7EDE83CEE89404C06894CA0FDB1F38
:100AC00000C0EF93FF936FEF7FEFCB01FF27A89557
:100AD0000EF019900EF41A9008941794062E0F1E1B
:100AE000969587957795679500FE08C0EDEE9E2751
:100AF000E8EB8E27E3E87E27E0E26E27169471F795
:100B0000119728F790958095709560950E01DB01FF
:100B1000EC018623872389238095FF91EF91089527
:100C0000A1811B5B34316D2E2E2E5B524553455412
:100C10002D885DA11B5B34346D2E2E2E5B524F4D03
:100C20002E4558542E6E656F5D00A1814944205BAE
:100C3000905D814C3A208708523A201B5B33326D1D
:100C40004531335230303031A1533A208705553A7F
:100C500020870681413A208707423A20C702433A5B
:100C6000208704453A208703463A20870181524F66
:100C70004D205B527C537C645D202D205B617C6247
:100C80007C637C657C667C6C7C737C755D3E20003F
:100C9000813A31301B5B39346DA81B5B39306D30C4
:100CA00030A0000081811B5B34356D2E2E2E5B45FC
:100CB00072726F722023885DA0202D203C627265C5
:100CC000616B3E20746F20726573756D65001B5BF0
:100CD00039306D001B5B33326D001B5B6D00A181F1
:100CE0001B5B34346D5B532D3E5D0000A1811B5BAB
:0A0CF00034346D5B3C2D525D0000B2
:100F0000005EBCE2613FDD83C29C7E20A3FD1F41E9
:100F10009DC3217FFCA2401E5F01E3BD3E6082DCD9
:100F2000237D9FC1421CFEA0E1BF5D0380DE3C62C9
:100F3000BEE0025CDF81633D7C22C09E1D43A1FFB9
:100F40004618FAA427799BC584DA3866E5BB5907A9
:100F5000DB856739BAE406581947A5FB7826C49A99
:100F6000653BD987045AB8E6A7F91B45C6987A2489
:100F7000F8A6441A99C7257B3A6486D85B05E7B979
:100F80008CD2306EEDB3510F4E10F2AC2F7193CD69
:100F9000114FADF3702ECC92D38D6F31B2EC0E5059
:100FA000AFF1134DCE90722C6D33D18F0C52B0EE49
:100FB000326C8ED0530DEFB1F0AE4C1291CF2D7339
:100FC000CA947628ABF517490856B4EA6937D58B29
:100FD0005709EBB536688AD495CB2977F4AA481619
:100FE000E9B7550B88D6346A2B7597C94A14F6A809
:100FF000742AC896154BA9F7B6E80A54D7896B35F9
:00000001FF
